:0200000407FCF7
:10000000F852FC07BD01FC07C501FC07DD01FC0738
:1000100000000000000000000000000000000000E0
:10002000000000000000000000000000F501FC07D7
:100030000000000000000000F701FC076D20FC0735
:100040001521FC074F21FC07A526F007411BFC07E3
:100050007B1AFC07FB01FC07D117FC07FB01FC071F
:10006000FB01FC07FB01FC07B714FC07BB14FC07F2
:10007000BF14FC07C314FC07C714FC07FB01FC07F3
:100080003D15FC07FB01FC07FB01FC07FB01FC071E
:10009000FB01FC07FB01FC07FB01FC07FB01FC0764
:0800A000000000008E070E00B5
:0200000407FCF7
:100110000348854604F020FA004800479103FC0795
:10012000F852FC0710B520480189C908C9000181AF
:10013000008A1E4CC00715D0608A8007800F0128F6
:1001400010D91B481949428820310A8182888A8047
:10015000C2880A80618AFF22813200889143C001EF
:10016000014361821349062008800F2000F00EF839
:10017000012000F00BF8002000F008F8608904214D
:10018000884360810020208062B610BD002809DB12
:10019000C106C90E0120884007490860BFF34F8F90
:1001A000BFF36F8F70470000000300500000005045
:1001B000A000FC070034005080E100E00F488047B9
:1001C0000F48004704207146084203D0EFF309802E
:1001D0000C490847EFF308800A4908470420714694
:1001E000084203D0EFF3098007490847EFF308807E
:1001F00005490847FEE7FEE7FEE7FEE72501FC07A5
:100200001101FC07A502FC070D02FC0710B504460E
:1002100020484089C00508D51B2000F0EFFF1D488D
:1002200060300188012211430180052212071088E5
:10023000518A0007800FFF2381339943C001014396
:10024000518215492068086060684860A06888602D
:10025000E068C8602069086160694861A0698861D8
:10026000E069C8610C620D48836A4B62C36A8B62A5
:10027000036BCB62C36B0B63436B4B63806B886315
:10028000074908200880908AC00601D500BE10BD2D
:10029000FEE70000200000500090FC0700ED00E0A9
:1002A0000033005070B5052504462D07288A042127
:1002B00008432882288940210843288124480126B0
:1002C000066024490820088023484089C00507D5D6
:1002D0001B2000F093FF20486030018831430180EB
:1002E0002888698A0007800FFF2281329143C0016C
:1002F0000143698219492068086160684861A06803
:100300008861E068C8612069086260694862A06924
:100310008862E069C8620C631148826A4A63C26AF3
:100320008A63026BCA63C26B0C4940310A60426B3C
:100330004A60806B8860A88AC00608D500BE688ABB
:10034000012180088000C9030843688270BDFEE770
:1003500080E200E000330050200000504090FC0795
:1003600000ED00E070B5094E0D46044611463046DA
:1003700001F01CFCAAB201232146304601F08AFCA0
:1003800070BD10B5014801F0BDFC10BD001100505A
:1003900008B500F0C7F800F07DFB05242407082508
:1003A000C826A84F0FE0012000F036FA0020009088
:1003B000042168464DF7C2FB002801D000F0EFFA97
:1003C00060F7AEFC0BE02089000608D5012080070D
:1003D000006B000403D49C480078C0070BD072B6B1
:1003E00001F048FF042810D0022815D0032813D0AC
:1003F000012821D021E05DF700F8002000F00CFA80
:10040000924800780428DBD1CDE791480078012894
:1004100001D0032000E0022000F04EF8A08AC006C0
:1004200001D58C48058030BFA08AC00601D5894817
:10043000458000F005F800E030BF62B63E80C2E7BC
:1004400010B500F07FF9844902280CD1052000077F
:10045000408AC005820F814802800A8942808A88CA
:1004600082800A88C28048896021C00500280ADB92
:10047000794860300088C00705D0774A2032508A1A
:10048000884320305082764882888A432032828096
:100490007448C078002807D07348006801898AB280
:1004A000416803205CF70AF903F0C7F86F48016957
:1004B00004229143016110BD38B5694605240870D6
:1004C0002407218A054604221143218200F063F8A3
:1004D000614841896022C905002905DB5E4B203354
:1004E000598A9143403159825D498B889343403307
:1004F0008B80022D01D0032D13D18188490849003A
:100500008180002000900099491C00911429FADB99
:10051000618989088900491C618161894906FCD586
:10052000608038BDF0B55248524905230127524A30
:10053000884201D31C4604E0904201D33C4600E0CF
:1005400000244E4D4E4E4748AD194E4E8470AD19A5
:100550000126B6034560B54201D8142500E0002508
:100560002540494C45708C4213D2484B2546EB1828
:10057000944205D38B4201D211230AE03B4608E0A6
:10058000934201D2142304E08B4201D2102300E0F5
:1005900000230370F0BDF8B5022801D0032848D12C
:1005A000324A136904210B4313612D4A203A93897F
:1005B0005B085B009381052410222A4E2407022841
:1005C0007578608A36D010436082608A0843608202
:1005D0007068C01C870801F091FC608A10210843F4
:1005E00060822B487F1E0762EFF31080012181F3A8
:1005F00010882188802291432180002800D001208A
:1006000080F3108814484089C0050AD501F064FCC5
:100610000B2000F0F3FD10486030018801221143E7
:10062000018003205CF770F8002806D00120F070EC
:100630002583F8BD90436082F3E70020F0703078A6
:100640000540F5E70031005054BAFC070C8DFC075B
:10065000B4BAFC070033005020000050A000FC0793
:1006600020030050C88BFC0758B9FC0700ED00E0E0
:10067000C08BFC070070FC070040FC071001FC0762
:10068000204A0000000004F8F852FC070C040000A7
:100690000000F407704770B50D46002442F72FF9AB
:1006A0002855641CE4B2202CF8D3002070BD10B58E
:1006B0005EF710FD10BD10B55EF715FD10BD70475B
:1006C000704770470649884200D000BE05210907DF
:1006D000488A012280088000D20310434882704774
:1006E0001111111148480178002902D08021417070
:1006F00070474649002008704549C8707047424914
:100700000A78002A03D000280CD002200BE0002831
:1007100001D0022000E001203C4908703C49012042
:10072000C87070470120803048707047002805D09D
:10073000012804D0022804D10120E0E7D2E70020FC
:10074000FBE77047314900200978002904D00129CE
:1007500003D0022900D102207047012070472A48A7
:100760008178002904D0491E0906090E817019D12B
:1007700042780021002A04D09207920F0270417043
:1007800004E00278002A01D0521E02701206120EF6
:10079000017007D0012A03D0022A03D10120AEE75D
:1007A0000020FCE7704700B5174A9078401C907015
:1007B0001078002805D1FFF7C5FF431CFFF792FF13
:1007C000137000BD10490120C87070470E49002009
:1007D000C87070470C48C07870470020EFF3108154
:1007E000012282F31088052212071289120605D40D
:1007F0000848028901231A4302811846002900D0C3
:10080000012181F310887047D08BFC07B4BAFC0734
:1008100054BAFC070033005010B5FE4CA1780029F3
:1008200021D0FD49002803D008884007FCD402E00D
:100830000888400717D4CA88888811040A1800203D
:10084000A070F64800235043800B401C4008E06134
:100850001F204006492162F703FEE162A062642185
:100860004843000CA06110BDEB4948800888032272
:10087000104308800888042210430880E5490120BD
:100880008870704770B505200007018930229143B8
:1008900001810189802211430181018908221143CC
:1008A0000181DF490A88520852000A8043891822D0
:1008B00093434381048940231C430481048A042513
:1008C000AC430482848AA407FCD5D24DAA246C616F
:1008D000CD8801240F263602B5430B263602AD190A
:1008E000CD80CD882543CD8044899443083444810C
:1008F0004A88520852004A800189994301810120A7
:1009000080070168821591430160C64801683F2253
:100910005202914342148918016001680203114395
:10092000016070BD10B5BB490122D203C969904274
:1009300005D303F03AFE8905800A084310BD4843F9
:10094000800A10BDEEE710B5B24989694843B6493F
:10095000401849005EF756FB10BDF4E770B500F093
:10096000D6FB0446FFF7F9FFAA4D288120463C300C
:10097000FFF7F3FFAD49001D88602A891018C01DDC
:10098000AB4A48601278022A01D111304860FFF763
:10099000D9FFA849401880B25CF7C0FD70BDF0B522
:1009A000A54985B00120C863C86B0028FCD101208F
:1009B0008007C069974C2169884201D200212161DA
:1009C0001922411AD20191422AD320619B48018801
:1009D0000391418802918788C688994903C900908C
:1009E0000191684600F0D3FE00F0FBFE05460120B1
:1009F00020567F280CD0281A40B2002801DA404245
:100A000040B2082805DBE068401CE06001F0EFFD23
:100A100065708A48029941808780C6800399018069
:100A200005B0F0BD0020704710B586490020086071
:100A3000FFF794FF01208007016B4900490801631B
:100A400010BD08B57349888075498A8852085200DC
:100A50008A80002200920099491C00911429FADB37
:100A6000052109074B899B089B005B1C4B814B8927
:100A70005B06FCD54880E120C0000092521C009229
:100A80008242FBDB48898008800048814889000653
:100A9000FCD508BDF8B56C48C82101800021418013
:100AA0006A480824448000F0EFFB694DA988684635
:100AB00001800088C046C0466846008804239843E9
:100AC0003ED00020A8806248203001880F22920288
:100AD00011430180524E2036718A21437182504960
:100AE00060310A880625AA430A800588CA01154391
:100AF0000580758A95437582B28A0E25AA43921D98
:100B0000B282474A5589534FED050D881DD5BD4327
:100B10005701ED190D800D880F022D052D0DED19D2
:100B20000D8005882543058005889D4305800D8837
:100B30006D086D000D8001884025A943018020E0EB
:100B4000288A400840002882BDE7BD4303277F0272
:100B5000ED190D800D880F273F033D430D8005885B
:100B6000A543058005889D430580B58A03277F023C
:100B7000BD43B5820D8801273D430D80518949074A
:100B8000FCD50188032529430180718A6025A9438A
:100B9000203171828188A9432031818001201D4E3E
:100BA000052530702D07E88AC02188438030E8820F
:100BB000108A000A00021082108B1C218843083022
:100BC000108325480380A8880121C9028843A88092
:100BD00048012249086001F091F9022001F053F91F
:100BE0001F4F3869C0B2AA2873D0012029880C226F
:100BF00091438000014329800648203000F0B0FA7C
:100C000000F02AF900F080FA002864D000F07CFAA5
:100C100028E00000D88BFC070016005011110100DD
:100C2000200000500002004020A10700304CFC07CB
:100C3000B4BAFC07E2040000C000004000150050F8
:100C40009C48FC07A8B9FC07003100500033005055
:100C500000030050000F00000002005080E200E09E
:100C6000C07FF807FFF7EDFE7F207070B86A1E495D
:100C7000086001F073F900F041F802F0DEFC012099
:100C800041F743FEFFF7FEFD1848006841F7E2FA1E
:100C900017490020C870087101208007016882157B
:100CA0001143016001F0A0F91E20FFF7DDFD0120D6
:100CB000FFF7B2FDFFF716FD02F03AF902F025FE4C
:100CC000FFF7B2FE0B49C82008800B484480F8BDEE
:100CD000FFE703208AE73869C0B2AA2801D06E2056
:100CE00096E7802094E70000304CFC074CB9FC07E5
:100CF00054BAFC07003100500033005070B535483D
:100D0000334D006834492C6892B0884205D00522E2
:100D10005202324932485EF7EFF9324E32493046DC
:100D20005EF703FA0721314809025EF7FEF92C60ED
:100D300003F0F6FA2F492E4808602F48002404805B
:100D400030222E492E485EF7D7F9294908228868B3
:100D5000C9681191109010A92A485EF7CDF924496D
:100D60004022103168465EF7C7F94022694626489E
:100D70005EF7C2F9254827490470254808602749CD
:100D80002548086027492648086027490A20087036
:100D9000264827490470322008702649052008603B
:100DA000254A01211160254908602549062008606F
:100DB000244907200860244908200860FF202349AF
:100DC00007300860224908602248066012B070BDF2
:100DD0005CBAFC079CB8FC076587341200B0FC07BE
:100DE000408EFC0700A0FC07AC14000000B9FC0713
:100DF000A448FC0760BAFC07088CFC077CFCF107E0
:100E000000BAFC07DAB9FC07B0BCFC07FDB9FC0767
:100E1000603FF20750B9FC073446FC0754B9FC07A1
:100E2000B047FC0758B9FC07B0B9FC07B1B9FC07DB
:100E3000D9B9FC075CB9FC0760B9FC0764B9FC07C9
:100E400068B9FC076CB9FC0770B9FC0748B9FC0726
:100E500044B9FC074CB9FC07F0B5B54C89B000208B
:100E6000207660760390B3480169B348814202D08E
:100E7000C01709B0F0BDAF4F0425403FE819016D20
:100E80000191090F092910D001220198920790427F
:100E90007AD3AA4A904277D8A9490835884274D1B2
:100EA000E819C16CA7484180A6E0019A0199120493
:100EB000C9B2160E112935D007DC0B005EF770F9A8
:100EC000087474747474740D1F7412390B005EF717
:100ED00067F9063A4B5D6B60656B207EB200C1001E
:100EE0009348403808189349143169185EF704F99B
:100EF000207E8019C0B22076042854D854E0607E49
:100F0000B200C1008A48403808188A4910301431AC
:100F100069185EF7F1F8607E8019C0B260760C281F
:100F200041D841E0416D89B20291406D000C01460B
:100F30000490029800F0EEF8A0800499029800F066
:100F4000F1F8E08030E0416D89B20491406D000C11
:100F500001460290049800F0DDF82081029904987F
:100F600000F0E0F860811FE0039805A980004018B8
:100F70007049B200143169185EF7BEF80398801901
:100F8000039002280FD80FE02BE010E0406D608244
:100F90000AE0416D66484038016405E0406D000498
:100FA000000CA08200D100BEB00045194AE064499F
:100FB0002639884203D1E819C06CE0821CE0604900
:100FC000091F884204D1E819C06C5E49888013E08B
:100FD0005B49083988420FD1E819C06C5949C8806B
:100FE0000AE007292ED008292CD00A292AD0062960
:100FF00028D0401C07D000BE4E4810302918524857
:10100000814200D23AE70598A0810698050C86B285
:101010002946304600F07EF8E0812946304600F04F
:1010200081F82082207EC10700D000BE40082076D3
:10103000607EC10700D000BE40086076A18A00290A
:1010400002D004E02D1DD7E77D21C900A18204282C
:1010500000D000BE00200CE7F8B5354C0025403C20
:10106000334F24E0EE00A059384988421AD1301994
:1010700000904068800A400414D001F09DFD0928CA
:1010800010D900980322406812020146090410405A
:10109000890E0843A159086000982D494068C00195
:1010A000C00D02E030194068A15908606D1C387EFF
:1010B000A842D7DCF8BDF8B51D4C0025403C2746BA
:1010C000403717E0E80006192248316981420DD106
:1010D00001F072FD092809D91F49706908401C49AF
:1010E0000988490408433169086002E03069716980
:1010F00001606D1C787EA842E4DCF8BD0C48808954
:1011000070470B48408A70470948C08A70470848B2
:10111000808A7047081A0104890C40180F4940184A
:1011200000B27047C2008018401A0004C014704713
:101130004C8CFC07C07EF807A5A5A5A54C42005025
:1011400028000050A000FC07C07FF8074C100040AA
:101150003C4CFC0738300040FFFF01FC0100FFFF62
:1011600010B5062201495DF7C7FF10BDD47FF8070F
:1011700005200007018830221143018001880322E5
:1011800011430180704705200007018830229143F8
:1011900001800188890889000180704736490A8BDF
:1011A00003231B029A43000202430A837047334918
:1011B0008A8A03235B029A43C3085B021A438A822A
:1011C0008A8A0723DB0240079A43800C02438A8203
:1011D0002A484030018801221143018027482038E5
:1011E00041894907FCD570472448818A808A49058E
:1011F000890F8004400FC900081870471F498A8A68
:1012000003235B029A43C3085B021A438A828A8AD9
:101210000723DB0240079A43800C02438A8270470F
:1012200010B50446154820384089C00502D4012075
:10123000C04310BD00F04DFE002806D0FFF7D4FFDC
:10124000A04202D90020C04310BD0C48408AC0040F
:1012500008D40B480088000704D4082C02D20420CC
:10126000C04310BD07480121047041702046FFF7BC
:101270009EFF002010BD00002030005040000050B4
:1012800020030050404CFC07F0B585B00026974C79
:10129000029602983021484300960019009989006F
:1012A00046500099491C00910C29F7DB0298401C1C
:1012B00002900128EDDB02F021F98C4D0021083D60
:1012C00029606960012702960020009002998848F1
:1012D0004900465A00993846884080B206421DD0DF
:1012E0000298302148430099001989004058411C58
:1012F0001BD000280DD0C117009A5DF741FF029A5C
:1013000012015DF73DFF2A686B681043194328609E
:1013100069600098401C00900C28DBDB0298401CA0
:1013200002900128D0DB05B0F0BD00BEE3E7F8B5C0
:10133000164605460C460A461F46012000215DF769
:101340001FFF2A015DF71CFF684B083B1A685B68AA
:1013500010401940084300D100BE6801654940189B
:10136000610008183E43C680F8BD70B505460C46BE
:101370000A46012000215DF703FF2A015DF700FF07
:101380005A4A083A1368526818401140084300D17D
:1013900000BE6801574940180121A140818070BDFD
:1013A00070B505460C460A46012000215DF7E8FEAF
:1013B0002A015DF7E5FE4D4A083A13685268184065
:1013C0001140084300D100BE68014A49401801217C
:1013D000A140418070BDFFB581B00C4605460A466C
:1013E0001F46012000210A9E5DF7CAFE2A015DF713
:1013F000C7FE3E4B083B1A685B6810401940084323
:1014000000D100BE002E2146284602D0FFF7C8FFBB
:1014100001E0FFF7AAFF3B4621462846039AFFF763
:1014200086FF80E770B505460C460A46012000217C
:101430005DF7A6FE2A015DF7A3FE2C4A083A136861
:10144000526818401140084300D100BE6801294984
:10145000401800880121A140084000D0012070BD43
:1014600070B5012421460A3881400D4688B200F04B
:101470002CF884402048C189A9430C43C48170BD25
:1014800010B504460A3804280BD82046FFF7E8FFB9
:101490001649A000303140188038806D002801D0F6
:1014A000804710BD002CFCDBE106C90E01208840FE
:1014B0001249086010BD0A20E2E70B20E0E70C208B
:1014C000DEE70D20DCE70E20DAE700280BD0411E16
:1014D0004840C003010C002002E04908401C80B2D3
:1014E0000029FAD17047102070470000708CFC076B
:1014F000F448FC07003000500014005080E200E087
:101500008307FF22DB0E9A408907090E99400028C5
:1015100008DB830845489B001B1818689043084364
:10152000186070470007000F0838830840489B0088
:101530001B18D86990430843D861704710B5FFF76E
:1015400022FE0522120790883A49000504D53A4B3D
:101550001C880520A04311D09088C30637481FD5AA
:101560008388DB071CD003881B0619D501228280E3
:10157000028880239A430280486822E01888042267
:101580001043188018884008400018800C68002C10
:1015900005D00220185E995E0A229A5EA04710BD0F
:1015A0009288D206FBD582889207F8D50288D205A8
:1015B000F5D5022282800288FF2301339A430280FC
:1015C00088680028EBD0804710BD70B5052424073B
:1015D000A58810263543A580002A00D100BE042529
:1015E000164CA58025889B06AD09AD019B0E1D43B9
:1015F0002580A181521ED1B26180218880221143B1
:101600002180208102211020FFF77AFF102000F0B6
:1016100004F870BD074948607047002805DBC10623
:10162000C90E0120884006490860704700E400E0C8
:1016300000ED00E0B48CFC070002005000010050F7
:1016400000E100E07D4801880122120391430180FE
:1016500070477A48018801221203114301806420F7
:1016600000BF401EFCD170477449CA88D208D2001E
:101670000243CA8070477149CA8870239A430001A7
:101680000243CA807047F8B5050049D06B4C2978F1
:101690002088402290438901084320806878FFF722
:1016A000EAFF2878002803D168780009FFF7DCFFFB
:1016B000E87804260128208833D0B0432080287998
:1016C000A1880002C9B20143A180E0880127400639
:1016D000400F7F02042826D0FFF7B4FFA8780F2818
:1016E00000D900BE61880F2252029143400201439B
:1016F0006180687961888908890001436180A879DF
:10170000012820883BD0B8432080E879072800D9F9
:1017100000BE6188FF22C132914380010143618094
:10172000F8BD3043CAE7FFF7ECFC454900280880C4
:1017300001D144480880FFF78CFF2088384320807F
:1017400021884020814301432180608830436080AC
:101750006088C004C00C608060880F214902884303
:10176000084360806088FF21C1318843FF218131B7
:10177000084360806088800880006080F8BD38433E
:10178000C2E72E480188012211430180704770B5DD
:1017900005462A4C00202080212000016080402046
:1017A000A080FFF7ABFCA081A1897020814340316C
:1017B000A181062000F035F82846FFF764FFFFF707
:1017C000E0FF70BD1D48018802221143018070476F
:1017D0001A490120C8811C480068002800D0004731
:1017E000704710B5FFF7EEFF144801888907C90F4D
:1017F000FBD10121C181008A114A14491288801A43
:101800007D22D2005043002801DD4A1002E000286A
:1018100001DA0F4A80185DF70BFC8011193040B2D5
:1018200010BD002809DBC106C90E01208840094906
:101830000860BFF34F8FBFF36F8F704700150050E4
:10184000424CFC0740760000C08CFC07AA05000053
:101850002BFDFFFF80E100E010B5934A13885B0881
:101860005B00138013884024A3431380138808244B
:10187000A343C000034313801089800A80020843F9
:10188000108110BD30B5884B1C88012564086400A8
:101890002C431C801C884025AC432C431C80012910
:1018A00000D101201C882025AC43400104431C804A
:1018B00018881024A0430901084318809888800ADA
:1018C00080021043988030BD30B5EFF310810122C3
:1018D00082F3108805231B079A882024A243224301
:1018E0009A80002900D0012181F310886E4C603469
:1018F000A18949084900A181A189C907C90FFBD164
:101900006949002220310A82674A0388938243880A
:10191000138383889383C3880B8013880625AB4386
:10192000457A6D002B431380827B002A00D100BED4
:10193000C37B002B00D100BE8B8B5B095B01521E69
:1019400013438B830A8B5309C27B5B01521E1343E3
:101950000B83817A012917D08189C07AFFF77CFF38
:10196000A189012081430143A181A089C007C00F43
:10197000FBD04E4801688022090A09021143016028
:101980004B491020086030BD8289C17A007AFFF788
:1019900079FFE5E7F0B5002584462846DC0701D04D
:1019A00002242343404C404F60340E46491E89B206
:1019B000002E1AD0268AB607F60FFBD0002904D1D4
:1019C0009D0702D50126760200E0002665462D5CC3
:1019D0002E433E82344D401C80352D8880B2002D30
:1019E000E3D031494031898A09E0D90707D0218AFB
:1019F0004907C90FFBD0218A8906C90FFBD1002AEC
:101A000000D01580F0BDF0B50027274D84469E46D6
:101A100038463C46244E603529E0641CA4B28C4212
:101A200005D173469F0702D501277F0200E00027FA
:101A3000FF2301331F4337828C4209D22F8ABF070D
:101A4000FF0FEAD104E0378A63461F54401C80B27E
:101A5000884203D22F8BBF06BF0EF4D1124F8037BE
:101A60003F88002F03D010494031898A01E0884225
:101A7000E2D3002A00D01780F0BD0B4810B520300B
:101A800080890C49C96A002901D0884710BD04200B
:101A900000F001F810BD002805DBC106C90E0120C9
:101AA00088400549086070470013005004E400E0D6
:101AB00000E100E0444CFC0780E200E08307FF22E5
:101AC000DB0E9A408907090E9940002808DB83083D
:101AD000DB489B001B181868904308431860704748
:101AE0000007000F08388308D6489B001B18D869E8
:101AF00090430843D8617047D34930B4884201D03D
:101B0000012100E00021D14A4901891808E0838AB7
:101B1000DB07DB0F12D00388541C8D68CC81AB54DB
:101B2000CA898B899A42F2D38288520852008280F5
:101B30008A69002A02D0C88930BC104730BC70477F
:101B400010B5C34800F0FBF810BDEFF3108101227F
:101B500082F31088BC4B052212079842908801D16D
:101B6000802300E0402318439080002903D0012007
:101B700080F3108870470020FAE710B50246403223
:101B8000938FDB07DB0FFBD18389802293431343C1
:101B90008381CCB2C0231C520B041B0E03800902AC
:101BA000090E818081899143818110BDA64A9042AE
:101BB00001D0012000E00020A44A400180184161CA
:101BC0007047F0B5A04F0D460446B84201D0012041
:101BD00000E000209D49400146182046FFF7B5FF70
:101BE0007C20005B28680102090A2046FFF7C5FF38
:101BF000E978C8068A06800FD20FC0009200490714
:101C00001043490F0843A081E878C109204680307D
:101C10000183E978CA091AD0BC4210D14906CA0F1B
:101C2000218A20239943520111432182E9784906F0
:101C3000CA0F218A02239943520011432182297934
:101C40000907890F818329798907890F0184287AF7
:101C50003077E8683061286970616869B061287917
:101C60000007800F7077F0BD828A5209D207D20F29
:101C7000FAD00180704730B513460C46054606E0A1
:101C800021782846641CFFF7EFFF5B1E9BB2002BF8
:101C9000F6D130BD70B56C4D0446A84201D001208C
:101CA00000E00020694E400186190020F080B280DB
:101CB000002B06D0012B07D13160AC4205D10220A8
:101CC00004E02046FFF7D7FF70BD032000F029F89D
:101CD000A088022188430843A080A08880218843EF
:101CE0000843A080317FAC4201D1022000E00320F4
:101CF000FFF7E4FEAC4201D1022000E0032000F037
:101D000007F870BD818A8909C907C90FFAD07047E1
:101D1000002805DBC106C90E012088404D49086036
:101D2000704700280ADBC106C90E012088404949D6
:101D300080310860BFF34F8FBFF36F8F7047F8B5E6
:101D4000414D424E044620890007000F062826D048
:101D500009DC012840D002281DD00428F3D12046F8
:101D6000FFF7CAFEEFE7072828D00C28EBD1AC42DA
:101D700001D0012000E00020400187192046FFF734
:101D8000BBFEA18849084900A180B9690029DAD0C1
:101D9000F8898847D7E7204600F01FF8D3E72046A8
:101DA000AC4201D0012100E00021490189190A69F2
:101DB000002AC8D0818A9E2319400BE02046AC42FD
:101DC00001D0012100E00021490189190A69002A96
:101DD000B9D001219047B6E7F8BD1B4930B488421D
:101DE00001D0012100E00021184A490189180EE0C4
:101DF00003891B069B0F032B1BD0838A9B06DB0FDB
:101E0000002B1BD0531C0C68CB80A25C0280CA88BC
:101E10008B889A42ECD3828802239A4382808288FC
:101E200080239A4382804A69002A07D0888830BC80
:101E300010477C231B5A9B07DB0FE1E77EE600007F
:101E400000E400E000ED00E000100050C48CFC074E
:101E50000011005000E100E010B50446FFF7C4F99E
:101E6000A04202D22046FFF7C9F958480188C907A5
:101E700008D101880122114301805448603841890A
:101E80004907FCD510BD38B5514C054620684107BF
:101E9000490F684601700078854219D04B48603878
:101EA0004089C0050CD5A81E03005DF779F905042B
:101EB0000604040409000B2000E01320FFF7CCFF08
:101EC0002068C008C0002843206060684007FCD537
:101ED00038BD4048007870473E4900200870704780
:101EE000052109070988090600D400BE80003A4987
:101EF00009583748016139494161704710B5EFF31E
:101F00001084012080F31088304860384089C00573
:101F10000BD5304901200870FFF766F93049087089
:101F20002A480088C007C00F4870052000070188B4
:101F300080221143018026480168C908C900016058
:101F400041684907FCD50320FFF7CAFF002C03D0E6
:101F5000012080F3108810BD0020FAE770B5EFF380
:101F60001084012080F31088052109070888802249
:101F70001043088016480368DB08DB0003604368F1
:101F80005B07FCD5174B0361144B436108889043F2
:101F900008800E4860384089C0050ED50D490020E4
:101FA0000F4D08702878FFF729F96878002804D1C8
:101FB00006480188490849000180002C03D001200F
:101FC00080F3108870BD0020FAE700008000005008
:101FD0000000F407048DFC07F848FC07090404A47A
:101FE000404CFC070F009909F8B51D481B4D0068CF
:101FF000A84231D0FF26C136012130465AF7ECFB0A
:1020000004461848016818480A0A017042700A0C10
:102010008270090EC1700022A35CFF21C0319F07AE
:10202000891ABF0F615CC75D79405940A154521CA9
:10203000B242F1D30C481C222146001D5EF7F0FF8E
:10204000002800D000BE20465AF741FC06484068F0
:1020500040F75BFC02480560F8BD0000658734125C
:102060009CB8FC07304CFC07744CFC070248006825
:10207000002800D000477047088DFC07F8B50125FF
:10208000AD07AC6B2046FEF75DFC6849684F4A68B7
:10209000861800204860394630465CF7B3FF654932
:1020A00048603A465043301A00D0381A80B208606F
:1020B000286B08218843084328635F4804605F4811
:1020C0000068002802D0A04200D200BEF8BD10B5C2
:1020D000FFF759F8052000074189890703D0418996
:1020E0008908890041810189802211430181018A87
:1020F000042291430182818A8907FCD500F0B2F85D
:10210000012080070169490700D500BE0169490720
:10211000FCD510BD10B5FFF72BF8494801894907D8
:10212000FCD4FFF730F847480521008809074880AC
:102130004548464C0088801E608007202080FFF7BD
:1021400017F820884007FCD4FFF7C1FF10BDF8B591
:102150003F480168C90703D00168022211430160AA
:102160000168490204D5016801229205114301600A
:1021700001272E4EBD072C69002C55D0200606D510
:102180008020A8614BF783FB1E20FEF76DFBA007A4
:1021900003D50220A86147F778FA200708D5082060
:1021A000A861002047F72AFA0420307000F0FBFCF9
:1021B000E00505D5FF200130A861012047F71EFA90
:1021C000A00504D501204002A8614BF7C9FB6006B9
:1021D00003D54020A86147F70CFAE00603D510208C
:1021E000A86145F7C9FD60070FD50420A861144810
:1021F00001894908490001815BF766F940F720FA37
:102200001E20FEF731FB00203070E00706D00120D1
:10221000A8615BF775F94BF73AFB3770A006AAD5B2
:102220002020A86100BEA6E7F8BD00000C8DFC07C9
:1022300071020000400000401C8DFC07148DFC075B
:1022400000330050DC8BFC07E08BFC0700160050CD
:102250000002004010B540F738F8674880686749C9
:10226000486010BD10B540F75CF8644862494068AA
:10227000886010BDF8B5002500F0B9F8002700907F
:10228000FEF7A8FA01465E4E0020002902D13179FE
:10229000022900D100905B490989C9070DD15AF77D
:1022A00078F9002809D0F0780125002805D005200C
:1022B0000007808AC00701D0042596E030880028F6
:1022C0007DD1FEF787FA002806D14F48806A0028A2
:1022D00002D000F08CF80090FEF740FBB178684621
:1022E0005AF74FFF00286AD00124A407206940064E
:1022F0007BD44348817868464BF720FC002874D093
:102300000120FEF74BFF0099002906D0206AFF3814
:102310003938DA2801D8491E00913C4802883C48E7
:10232000016850183B4A1060E26B920A92020A431D
:10233000E263E16B384A1140384A1668B202114331
:10234000E163E16BC902C90A40050143E163344A14
:10235000009804250021904200D300BE314B0CCBE5
:102360005CF77AFE0903000D0843244A401E711CE5
:102370001060884200D1166021480079002801D001
:10238000012100E00021106847F7EEFA2648C06AF4
:102390008047FEF747FB002802D0FEF7E9FE012741
:1023A000154E206B0004C00FFBD03068C005FCD573
:1023B00030688024A0433060002F03D000E014E098
:1023C000FEF7E1FE0F494889462804D24622174B02
:1023D000101A18604A81FFF73DFF30680006FCD5EF
:1023E000052000070189A14301812846F8BD104856
:1023F0000068806A7047000000020040148DFC07EE
:1024000054BAFC070033005074BEFC07E08BFC0795
:10241000384CFC07884CFC07FF03E0FF344CFC07FA
:1024200040420F00008CFC0758BFFC07108DFC07D2
:1024300058B9FC07002070477047704710B528282E
:1024400001D2282002E0E62800D9E620FF21F3315E
:1024500048437D21C9005CF7D5FD8130C0B210BD75
:102460007047704710B5022902D0012900D000BE84
:10247000002802D0FF2802D000BE022902D000F0BE
:102480009BFB10BD0C2010BD01218907086B0722A2
:10249000104308638C480168021391430160704740
:1024A00010B50220FEF77AFE8748016802039143C7
:1024B0000160864800214163416B1F221204914351
:1024C00042138918416301060868F0229043E03006
:1024D000086010BD10B58AB07D4941627D498162B6
:1024E0007D494161002430210C547C49C1627C4902
:1024F00001607C4901627C4941607C49C16100F016
:102500003EFB7248416B1F2212049143421389180B
:1025100041636D480168C2129143016068460455E9
:10252000641CE4B2282CFAD30146714828220068C2
:1025300040305CF7E1FD092000F03BFB00F03FFB81
:10254000002802D0012000F034FB00F019FBFEF758
:1025500083FDFEF7B0FD00F0D5F800F058F8FFF766
:102560009FFF00F00BFB00F083F800F01CFB0AB0AB
:1025700010BD10B55548416B1F2212049143421300
:102580008918416300060168C908C9000160052077
:102590000007018908221143018100F010FB002887
:1025A00002D0012000F005FB00F0EAFAFEF754FD2E
:1025B000FEF781FD00F0A6F800F029F8FFF770FFA4
:1025C00000F035F800F0EFFA10BD10B504467022A7
:1025D000484949485CF790FD47484830011B464848
:1025E0001038018344495C31091B418310BD10B58B
:1025F00000F0C6FAFEF75FFD00F084F800F007F87F
:1026000000F0BCFA00F023F800F0CDFA10BD2F4B1B
:1026100010B540331868394C0102090EC2B20A31B4
:1026200009040A32204011430143196010BD344AA5
:10263000118B3148103083691B0C1B040B438361E1
:10264000518BC269120C12040A43C26170472C4AB2
:10265000203A118B28481030C3681B0C1B040B4315
:10266000C360518B0269120C12040A430261704765
:1026700010B5FFF7ECFFFFF7DAFF21482038018A99
:102680001D4810308268120C12040A4382601C4AF2
:1026900040329188036A1B0C1B040B430362D188F0
:1026A000426A120C12040A43426215494A88836A3C
:1026B0001B0C1B04134383628988C26A120C120428
:1026C0000A43C26210BD000000020040400000400A
:1026D0003524FC073924FC076524FC078924FC0702
:1026E0003B24FC076124FC076324FC073D24FC0712
:1026F0004CB9FC071449FC0770A0FC0700FF00FF61
:1027000020300040F0B5FE48406B7F21090288432D
:102710000B2109024018FA494863086AF94980B256
:102720004018F7490862886BF749012208405203B4
:10273000F34980188863F2484030016903231B0283
:1027400019430161818B102421438183EC4820309F
:102750008188012421438180ED49EC480860ED4CDB
:1027600020883F21090188432F210901401820803A
:10277000E84820388169E84D490D490549198161CA
:10278000C169E64D294009256D024919C1614168B9
:10279000E34D2940E34D491941608168E24D2940EC
:1027A000E24D49198160C168E14D2940E14D491967
:1027B000C1600169E04D2940E04D49190161E049DE
:1027C000C514097809064919C1256D012943DD4D54
:1027D00029600525DC49AD020D816D1D8D81DA4929
:1027E00020310D892D0A2D0255350D818D25AD0025
:1027F0000D82D64D8D82D64D0D83D44D0E3D8D83E9
:10280000D349D14DC91D40352980D249A181C16B21
:10281000D14C2140D14C0919C163FF20D04C6C3000
:102820002080CF482030068B1F2149010B258E4385
:10283000AD0176190683CA484030868809278E4341
:10284000BF01F6198680068915278E437F01F61988
:10285000068186898E4371198181FF208D30A08089
:10286000BF4880300189E024A14319430181818B55
:102870004909490119318183B2482030818B5B01BC
:10288000994389188183AF4880300168C908C9001D
:10289000C91C0160AB49B34840314862F0BDA94949
:1028A00008B500208031C8620090401C0090FF28CD
:1028B000FBDDAD480078AA49C006820D4031C868EA
:1028C0001F235B0198431043C86008BDA7488C498B
:1028D0000068403108608A488169890989011C3192
:1028E00081618169C21391438161016B3F221206AC
:1028F00091430722920689180163016B3F229201DE
:1029000091430F22D20189180163016B8909890162
:102910001E31016370477A48C16949084900C161A5
:1029200070478F4808B54030C1688F4A8905C90E85
:102930001170C1681F2252019143C1608149012079
:10294000887180488030C16A03221143C16200202F
:102950000090401C0090FF28FBDD08BD08B57949B8
:102960000220887100200090401C00900B28FBDBA7
:1029700008BD634841210177C16903225202914396
:1029800002158918C16170475D4840300168774A77
:1029900011600021C9430160594881698909890191
:1029A00081618169C21391438161C169032252022D
:1029B00091430315C918C161C1697023994340311E
:1029C000C161016B3F231B0699430B235B06C918AA
:1029D0000163016B3F239B01994389180163016BDC
:1029E00089098901183101637047F8B555480327F3
:1029F0004771434C6068C009C00114306060FFF744
:102A0000C3FF43202077FFF7A9FFFFF78AFF0025C8
:102A1000261500950098401C0090B042FADB494909
:102A200003204871364880308068C705FF0DFFF7E6
:102A300036FF00950098401C00901028FADBA06932
:102A40004002400AF9050843A061A06948490840CE
:102A5000B9010843A061FFF78CFFFFF77FFFFFF785
:102A600060FF00950098401C0090B042FADB3549A9
:102A700003204871224880308068C705FF0DFFF7AA
:102A80000EFF00950098401C00901028FADBA0690A
:102A90004002400AF9050843A061A0693449084092
:102AA000B9010843A061FFF764FFFFF757FFFFF785
:102AB00038FF00950098401C0090B042FADB214995
:102AC000032048710E4880308068C605A069F60D65
:102AD0004002400AF1050843A061A069244908406A
:102AE000B1010843A061FFF716FFFFF7EFFEFFF704
:102AF000D6FE00950098401C00901028FADB39E0C3
:102B00000030004000008888FF00FEFF59055C0788
:102B1000800000402020004009581A00FEE1FFFF1D
:102B2000E0E000000809294900000303696A686CB5
:102B3000031FFFFF70600000E0E0E0E00B0A0A08FE
:102B4000208DFC070010004020130040340A0000D4
:102B500051080000070F00002F64E0FE101A060164
:102B600000120040500150012C4BFC078C4CFC071C
:102B70003F80FFFF134846810120F8BD35E77047CD
:102B800008B511480821017100210091009A521CDA
:102B90000092102AFADB0091491C00911029FBDBFE
:102BA0000321417108BD0848022181710021818003
:102BB000704706490870704704480078704703481A
:102BC00040787047904CFC0700100040208DFC07B7
:102BD000F8B50025204CFF272E46002813D12846A3
:102BE00010302661A082E7826660A660E681A68139
:102BF000C0B2214626605AF7FCF86D1CEDB21834BD
:102C0000002DECD0F8BDE08A5EF778FB002802D0FA
:102C1000416820468847E7826660A660E681207D9D
:102C20005AF741F96D1CEDB21834002DEBD0F8BD08
:102C300070B5094C06460025E08A5EF75FFB002868
:102C400003D082683146204690476D1CEDB218349F
:102C5000002DF1D070BD0000288DFC0710B500F0EC
:102C6000C1FB60F745FD0020FDF760FD10BD0C21A4
:102C7000314A10B5414389188978FF2902D000F004
:102C8000AAF810BD00F064FE10BD10B560F718FC86
:102C9000002801D000F05CFE10BD10B500F058FE19
:102CA00010BD10B525490A780270401C491C5CF71C
:102CB00023FA10BD2149498C018070470821018009
:102CC00010214180002181807D21C180704770B535
:102CD0000C4601780025194B002904D0012909D0A0
:102CE0004820207070BD8278011D1A70581C5CF756
:102CF00003FA01E040885884257070BD01200870F7
:102D0000002048808880704770B50446407980096B
:102D100011D13FF7F4FD014620700A0A62700A0CD7
:102D2000A270090EE170251D3FF7E9FD2870000A29
:102D3000C0210843607170BD588DFC07648DFC078D
:102D400000219F4A05E0834201D101207047491CC0
:102D5000C9B20C234B43D35CFF2BF4D10020704746
:102D600070B5974A974C15460C350DE0891849689F
:102D7000002907D0C1B20C23594389184968401C67
:102D8000607025E0401C607060780C214143535C0A
:102D9000FF2BEBD10AE049194968002903D0FFF75E
:102DA000CFFF00280DD02078401C207021780C2007
:102DB0004143685CFF28EED1002060702070012044
:102DC00070BD20780C21414349194968401C20708E
:102DD0008847002070BDF8B505460024784E0AE00B
:102DE00080198168002904D0641CE4B22846884711
:102DF00001E0641CE4B220460C214843315CFF2909
:102E0000EED16F4E00240C3609E08F19B968002905
:102E100003D0FFF795FF002808D0641CE4B22146D8
:102E20000C204143705CFF28EFD1F8BD641CB968E9
:102E3000E4B228468847F2E710B5624CE068002803
:102E400022D15223042209215F4859F7D3FD0D21D5
:102E5000E0600170002141705C4A8280C2800722DC
:102E600002728172012242720422C27258A2138835
:102E700083815288C2812B2211540246103256A3FC
:102E80000B210B3060F746FBE06810BD70B54D4E6E
:102E900004468500361D7059002816D121020E23E4
:102EA000042250480A3159F7A5FD09210170002C70
:102EB00000D000BE70511021818008214180002186
:102EC000C1807D22028141818181705970BD70B5C0
:102ED0003C4EB068002829D13B482C23042209210C
:102EE000093859F787FD032101700A21B06041704C
:102EF00017210184002585760446458010210A307B
:102F00005CF713F92021E176A583E58336486584D3
:102F1000C08FFB21FB2800D908463349E0844031AB
:102F200032480988814200D808462085B06870BDC3
:102F30003EB500252249009501950C2234316846A2
:102F400002955CF7D9F81F480C22183069465CF7E7
:102F5000D3F81C4C0B22243422701FA1601C5CF798
:102F6000CBF8174965842431042059F742FF00212A
:102F7000042059F770FF3EBD5EE710B5FFF75CFF18
:102F800059F753FD0F490020C8600221042059F76A
:102F900062FF10BD10B50446FFF778FF59F745FDF5
:102FA000084A0020A100121D505010BD10B5FFF7B7
:102FB0008EFF59F73AFD03490020886010BD0000DC
:102FC000B049FC07408DFC070D0D00004C040000CB
:102FD00003030A1800000000736D61726368486F94
:102FE000757365000E0E0000F0BBFC07480800007A
:102FF00010B5104659F744FF002802D000BE00204B
:1030000010BD012304220921724859F7F3FC012164
:10301000017059F70AFDF2E710B50C780E2C13D0A9
:1030200008DC012C12D0032C16D00C2C0CD00D2C4B
:1030300008D119E00F2C07D0112C05D0122C03D089
:10304000132C01D000F0D1FC002010BD48780028DE
:1030500005D1FFF7ABFFF7E74878002801D000BEA5
:10306000F2E7FFF712FEEFE7487800F0ABFCEBE782
:10307000F8B51C4610460E4659F702FF022802D04A
:1030800000BE0020F8BD240A00D000BE0C20274658
:10309000474351483D18AC70FF2C15D00121E97011
:1030A0000321042059F7D7FE4B483188C153707A69
:1030B00028713146681D06220A315CF71DF801228D
:1030C0000021204660F710FA3146204600F052FCFD
:1030D000D7E770B50D784C78092D04D0002C00D0BE
:1030E00000BE00F082FC002070BD70B51D46104689
:1030F0000C4659F7C5FE2A0A032802D000BE00205C
:1031000070BD0C2042433448FF211018817000210B
:10311000C170204600F05AFCF1E7F0B508780025B0
:103120002E4C89B01F461646002804D0012817D01F
:10313000022827D129E06846FFF7B3FD68460378E7
:103140003246394620460A3359F754FC0446057086
:1031500068460278411C6280201D5BF7CDFF2BE0A2
:1031600069460D806846FFF7A5FD0A2332463946B9
:10317000204659F73FFC01210170694609884180CA
:1031800059F753FC002009B0F0BD0A233946204608
:1031900059F730FC04466846FFF790FD0220207086
:1031A00068460088608068464088A08068468088BD
:1031B000E0806846C08820812046E1E7FEB51C46D5
:1031C000089B0D26064D6F4668C71346224660F7DA
:1031D0008FF8FEBD020D0000588DFC070B0E00009D
:1031E000F049FC07052000070089000608D50120EA
:1031F0008007006B000403D403480078C00701D0A7
:10320000002070470120704754BAFC077047704790
:1032100070B50D460446FFF7E5FF002806D06B4861
:103220002A460421201859F724FF70BDFDF7D5FA6E
:103230006648042208231146801E59F7DBFB4560CF
:10324000047059F7F2FB70BDF8B5614C069D061984
:103250000024002E26D0012E0CD05F4F5D4B3A4645
:10326000283A022E0AD05A49C91E41180A2927D3E2
:103270000120F8BD00F080F8287039E00878461E7B
:10328000092E0DD88000001F105898422FD1B00091
:103290003B5813504A6808781146FFF7B9FF26E0FB
:1032A00000BE24E04A68002A02D04C48824200D383
:1032B00000BE087845494018042159F7DAFE16E0A7
:1032C0004349891E4018C0B2411E0929E8D886002A
:1032D000B218803AD16F002909D0994207D0404BEB
:1032E000994204D0D467F219803AD46788472C7089
:1032F0000020F8BD0A46010010B5384801D08142CF
:1033000000D300BE0020344B283B84001C59002C05
:1033100004D0401C0A28F8DB002010BD84001A519C
:10332000401C0406240EF7D02046FFF771FF20460C
:1033300010BD70B50446401E09281BD82648A100C0
:1033400028380D18803DE86F002813D0244EB04275
:1033500010D01E480421201859F7D5FE1B4804221E
:1033600008231146401EEE6759F744FB047059F7D5
:103370005CFB70BD00BE70BD10B508780C46411EE8
:1033800009291FD882001448121F28388258144B6C
:103390009A4205D10022890042502830425012E062
:1033A000890040580B4988420DD104220823114658
:1033B000064859F71FFB217801706168416059F791
:1033C00034FB00E000BE002010BD0000030400003C
:1033D000FFFBFFFF0F32FC07C88DFC07FCFF3F001F
:1033E0000D32FC07704710B50A23042209210B484F
:1033F00059F700FB04461B202070142060F74CF99D
:103400006070142060800420A0800020E0800121F2
:103410002181204659F709FB10BD00001B0D00005B
:10342000F8B50E4609781846002425460B005BF7D0
:10343000B7FE090609120915150C180F1B00062402
:103440001AA512E007241BA50FE008241BA50CE019
:1034500007241DA509E00A241DA506E00D241FA5CB
:1034600003E0062421A500E000BEA31C014621487C
:1034700059F7C0FA0746307838707C70002C04D0B9
:1034800022462946B81C5BF737FE384659F7CDFA75
:103490000020F8BDFEB51C46089B0126164D6F4660
:1034A00068C7134622465FF723FFFEBD736D617246
:1034B000636800004441313435333100123456FF23
:1034C000FE9ABCDE0000000001D200800500010071
:1034D000312E302E302E302D4C450000765F362EAA
:1034E000302E31342E31313134000000FFEEDDCC8E
:1034F000BBAA000003140000DC4AFC0770B55A4860
:1035000000224169D243002901D0114600E0012187
:10351000CB17CC0E5B0123434C01416153490D682D
:103520004E682C4333430C604B60436A002B01D040
:10353000144600E00124E317E50D5B022B434462CF
:103540000D6864024E682C4333430C604B60C36AC1
:10355000002B01D0144600E00124E317650DDB02C7
:103560002B43C4620D68E4024E682C4333430C6065
:103570004B60C369002B01D0144600E00124E3171F
:10358000650EDB012B43C4610D68E4014E682C43DA
:1035900033430C604B60036A002B01D0144600E0FB
:1035A0000124E317250E1B022B4304620D6824023D
:1035B0004E682C4333430C604B604368002B00D1B2
:1035C00001224260D01792180C6840414B68224398
:1035D00018430A60486070BD38B50024FF222346B6
:1035E0000132092120460094FDF7F5FE0325002352
:1035F0002D022A460B2118460094FDF7ECFE01200F
:10360000014600901D232A460020FDF7E4FE00221B
:103610000923072110460094FDF7DDFE00220A234E
:10362000082110460094FDF7D6FE04232A46052102
:1036300000200094FDF7CFFE38BD10B51B20FDF72C
:10364000EFFD00F069FE0A490A48FEF7BAFAFFF7F3
:10365000C3FF0948012182898A430A4382810448C1
:103660001038FEF731F910BD708CFC07688CFC0730
:10367000F44AFC07001100500003005010B5FE4949
:103680000020087000F0BBFB0021FCA05DF736FBBA
:103690005FF794FF0120FDF749F8FDF793F800F07C
:1036A000FFFB10BD10B50020FA4A01461318401C5C
:1036B00099700528FADBF84881704170F7A05DF732
:1036C0001DFBFFF7DBFF10BDF349002008707047BA
:1036D000F0B5002589B02E462C46EF4F3F1D3857D8
:1036E00000F0A2FEF54AF64B00F036FE00F0B0FE08
:1036F00038551037385700F097FEF04AF04B00F07D
:103700002BFE00F0A5FE38551037385700F08CFE20
:10371000EA4AEB4B00F020FE00F09AFE3855641C9C
:10372000102CDADB00F092FA011238462038071F1D
:10373000FA78815400F0D3FA3C46F9780012143438
:10374000605400F014FB00122246F97810325054F5
:1037500000203B1D1F567D192756BE191756401CC9
:103760001028F7DBE817000F40190211F017000FBF
:1037700080190511C84C0023102902D2491CE170A0
:1037800000E0E3700F216846017551B201716AB221
:10379000427100230372037601A8C056002801DBA2
:1037A000054600E045426F460826BE57B54204DD97
:1037B000002800DA404238723B765B1C022BEBDBC0
:1037C0001823FB56BB71002901DB084600E0484284
:1037D0001426BE57AF4D093DB04208DC002A01DB7C
:1037E000104600E050421426BE57B04247DD207814
:1037F000002844D100263E70002B02D0012B0ED1B0
:103800001AE0A0780090AFA05DF778FA694604202E
:103810000856002801DD4C2000E052200870684660
:1038200000789C49A27889188870A078042811D261
:10383000A078401CA0700EE0A0780090B0A05DF7CA
:103840005DFA694605200856002801DD4420E5E7B9
:103850005520E3E7A67001262670B8493220FFF70D
:1038600049FDE8706078002802D02879FFF761FDF3
:10387000FF20B3492D30FFF73DFD287166707E4E65
:10388000707800280FD06078002802D02879FFF7E0
:1038900050FDFF20AA492D30FFF72CFD2871012093
:1038A00060700020707009B0F0BD70B5794C093CB3
:1038B000A079000602D525462F3501E0754DED1D96
:1038C000FFF706FFA07907224006400E4019714914
:1038D0005BF712FC6F4A237A26321046E1791F38D3
:1038E0005FF72AFE64480078002804D0954901203B
:1038F000FFF700FD607070BD10B5664C093C207884
:10390000FFF748FB0020A07010BD70B5614D00248A
:10391000093D5949AC700120087000F0ECFA5D488F
:1039200006210170FF2141708470C47004715A48EF
:103930008470C4702846042283A110305BF7DCFB3E
:103940000420E8712C72FFF789F900F03FF970BD8F
:1039500010B57C490120FFF7CDFC4E49093948706C
:10396000FFF70AFB012307224A4900F065F8FFF739
:1039700004FB10BD70B50C4605460C207449684325
:1039800040188078FF2816D0424E093E3570707876
:10399000FFF7CFFC60880838092805D2A0880028E6
:1039A00002D1E0887D2808D07D206A49C000FFF759
:1039B000A1FCB07001E0FFF7CBFF21462846FFF7DE
:1039C00056F970BD442800D1C2E7704710B5314C9C
:1039D000093CA078002803D0FFF7ABFC0020A070C2
:1039E000FFF776FEFFF7B4FF10BD704770B55AA021
:1039F0005DF784F90B210020FDF7B7FC01251E4C73
:103A0000504925702846FFF775FC2249093948704E
:103A1000657070BD10B500F0D9F854A05DF76EF96F
:103A200057496420FFF766FC1A49093948710B2190
:103A30000020FDF7B5FC10BDFEB517460446002B6F
:103A400001D01C2000E01F20E27A124E831A20468B
:103A50000C30019020302546093E20350090BB42B5
:103A600009DB019810183A465BF746FBE07AC0196B
:103A7000E072C01F96E085E02D4BFC070A0D5379DC
:103A80007374656D20676F696E6720746F20736C47
:103A900065657000F98DFC07BA4CFC0767657374A7
:103AA00075726520646973706C61792072657365E5
:103AB000742063616C6C65640A0D0000CDCCCCCCC5
:103AC000CCCCEC3F0A0D2A2A2A2A2A0A0D2A2A5887
:103AD0002A2A20783A25642C20793A25642C207AE9
:103AE0003A25642C2067657374757265536C6F7426
:103AF0003A25640A0D2A2A2A2A2A0A0D0A0D0000EC
:103B00000A0D2A2A2A2A2A0A0D2A2A592A2A20781C
:103B10003A25642C20793A25642C207A3A25642CA5
:103B20002067657374757265536C6F743A25640A07
:103B30000D2A2A2A2A2A0A0D0A0D0000C936FC0776
:103B4000A536FC07AB38FC0703030A180000000089
:103B5000588DFC07F938FC074D6F746F7220737431
:103B60006F7070696E670A0D000000004D6F746F12
:103B700072207374617274696E670A0D0000000030
:103B8000ED39FC07E87A1F22121ABA420CDB009AC0
:103B900080183A465BF7B0FAE87A8021C019E872DB
:103BA000C01F0843B07100E000BEE27AF27106481F
:103BB00001995BF7A1FAEA7A034832721F30009943
:103BC0005BF79AFAFEBD0000008EFC073EB5B248D6
:103BD00081894908490081818189C907C90FFBD1C1
:103BE000AD49182260398B889B0A9B0213438B8056
:103BF000828901218A430A4382818189C907C90FC9
:103C0000FBD020216846017057214170022301AA90
:103C10001946FDF7BFFE30216846017000240223DB
:103C2000447001AA1946FDF7B5FE002301AA02213E
:103C30006846FDF7AFFE022301AA042102A8FDF7A2
:103C4000E2FE96480470447084703EBD1FB50020AB
:103C500069460880904881894908490081818189A5
:103C6000C907C90FFBD18C49182260398B889B0A80
:103C70009B0213438B80828901218A430A438281FC
:103C80008189C907C90FFBD0282168460171292104
:103C90004171002303AA042101A8FDF77BFE022342
:103CA00003AA042102A8FDF7AEFE6846017A01804E
:103CB000002303AA0421401DFDF76CFE03AA022382
:103CC0000421D01EFDF79FFE6846407A0102684637
:103CD0000088014368460180008804B010BD1FB50C
:103CE0000020694608806C48818949084900818123
:103CF0008189C907C90FFBD16749182260398B88B0
:103D00009B0A9B0213438B80828901218A430A43C9
:103D100082818189C907C90FFBD02A2168460171B8
:103D20002B214171002303AA042101A8FDF732FED3
:103D3000022303AA042102A8FDF765FE6846017A62
:103D40000180002303AA0421401DFDF723FE03AADE
:103D500002230421D01EFDF756FE6846407A010278
:103D6000684600880143684601800088B5E71FB5B2
:103D700000206946088048488189490849008181B6
:103D80008189C907C90FFBD14349182260398B8843
:103D90009B0A9B0213438B80828901218A430A4339
:103DA00082818189C907C90FFBD02C216846017126
:103DB0002D214171002303AA042101A8FDF7EAFD8A
:103DC000022303AA042102A8FDF71DFE6846017A1A
:103DD0000180002303AA0421401DFDF7DBFD03AA97
:103DE00002230421D01EFDF70EFE6846407A010230
:103DF0006846008801436846018000886DE71CB56D
:103E0000254881894908490081818189C907C90FED
:103E1000FBD12149182260398B889B0A9B021343EE
:103E20008B80828901218A430A4382818189C90763
:103E3000C90FFBD02024684604701A214170022368
:103E400001AA1946FDF7A6FD252168460170422109
:103E50004170022301AA1946FDF79CFD30216846F6
:103E6000017088214170022301AA1946FDF792FDD5
:103E70003221684601700223447001AA1946FDF7F9
:103E800089FD33216846017001214170022301AA96
:103E90001946FDF77FFD1CBD60130050EE4CFC077A
:103EA0001A4904208880704710B5184C208880215A
:103EB00008432080FCF78EFC002819D00020FCF776
:103EC00035FCFCF78AFCFCF781FC09210020FDF79A
:103ED000A9FA002805D100210DA05CF70FFFFFF71C
:103EE00099FD042058F7CCFF022801D1FFF730FDDF
:103EF0000420A08010BD012210B550021E230146EF
:103F0000FDF763FB0948FDF785FB10BD000100507C
:103F10000A0A0D57616B65757020736F7572636562
:103F20003A20494E540A0A0D00000000A93EFC0741
:103F3000F8B50746012000230246009019460320E9
:103F400045F760FA0446022180300170F64DF548CD
:103F50002A6843881146FF31F7310B8680884886EE
:103F6000F248066A0123DB069E431E430662FF32C7
:103F70000020FF32383250829082D0821D20088289
:103F8000EB484884EB48C882EB480883002048820D
:103F9000384645F777FD01462868FF30F730C28B79
:103FA000920992010A43C283E4484168002088478D
:103FB000002C02D0204644F70EFE2046F8BDFFB587
:103FC0008BB0064616980027022821D00D9801884C
:103FD0001498814278D37188084640383F2802D827
:103FE000159851F70BFE0C98361D0088149A80190D
:103FF0000E995BF781F80C980188149808180C99B1
:1040000008800D9801881498081A0D9908805CE1C1
:1040100000200E9D079069782C7809022143318099
:10402000E978AC780902214371808C464039042438
:104030002D1D024603468E46402900D3287861464E
:1040400004291FD0052914D0062918D070463F280E
:104050003DD8159851F7D2FD0006000E04D0B8489F
:10406000008D0006C00F30D002230120B54A002782
:1040700012E0697800290FD0B34A17230CE0B34A45
:104080000F2309E0522802D0D22802D002E01420E7
:1040900000E01520AE4A1F23002A1AD0984218D2F9
:1040A000800010580490002813D00020089005903C
:1040B00070884038402803D32878052430716D1C5F
:1040C000701D00900498B5E0FEE03027F0E0332743
:1040D000EEE07088042872D10627E9E0522862D009
:1040E0000CDC4B283FD004DC41286AD0422858D150
:1040F00011E04C2820D0502853D140E0632830D024
:1041000004DC572818D061284BD19BE06C2864D080
:10411000772846D109E00098297801700098641C3E
:10412000401CA4B26D1C009081E00498401C0490D7
:104130000178089881427AD10098A41C401C41085B
:104140004900881C009068782A7800021043088093
:104150000599AD1CA4B2002969D0089000200590F3
:1041600065E00120FBE71022294600985AF7C4FFBA
:10417000009810341030A4B21035009057E020465B
:1041800040301499039088420BD840222946009869
:104190005AF7B2FF0098403000900398403584B23F
:1041A00045E0342743E00822294600985AF7A4FF47
:1041B000009808340830A4B20835009037E068E071
:1041C000FFE70622294600985AF796FF0098A41D9B
:1041D000801DA4B2AD1D009029E01498001B80B290
:1041E00003903088001B001D81B2012007900498C5
:1041F000401C04900098401C400840000090049827
:10420000007857281CD04228CBD100980170090AA9
:10421000417000982946801C0090039A5AF76CFF61
:1042200003980399201884B20098401800900498CD
:10423000401C0490007800281ED0002F17D01BE0EF
:104240004908E2E71498001B81B200980391401CD2
:1042500040084000009001200A4607902946009837
:104260005AF74AFF0399601884B20098DDE70D9968
:104270000988A14200D331E70D980088A04208D3F5
:1042800004990978002904D10799002903D1A04293
:1042900001D034270CE00D99001B08800C98018890
:1042A0000098801B001F08180C99002F08800CD064
:1042B0007088042809D0062807D04038402804D345
:1042C0000E984079707100E0342738460FB0F0BD89
:1042D000FFB581B01F4616460C46104658F7D0FD74
:1042E00000257F2802D02189062909D03B46324685
:1042F0002146019852F715F80546284605B0F0BD4D
:10430000C00601D50225F8E720780028F5D1300A4B
:10431000A11D3EF79EF9F0E70E49002008607047A6
:104320007047000030BCFC074CB9FC07C0000040DF
:1043300010800000294100007671000058BFFC0782
:1043400048BEFC073803F2074003F2079C03F2075C
:10435000D803F20700000840F0B51FB488B00B99ED
:104360000998002448400999C00F4900490809915B
:10437000C0070B990090490049080B9109990898CA
:10438000A64608431CD00B990A98084318D00998F0
:1043900001244000420D4800410D09982405000306
:1043A000000B204309900B980003000B20430B9057
:1043B00050181C494018002201901446104605E090
:1043C000002001460DB0F0BD032801DA034600E0ED
:1043D00003239C46C11A0AAE0AE05F0008ADED5BFC
:1043E0004F00F75B7D430027AA187C41491C5B1EE8
:1043F0006145F2DD410004AB5A522104120C0A431C
:10440000240C401C0828DFDB0198029000997046BC
:1044100001910090059B049A0799069800F049F8CD
:10442000D0E700000DFCFFFF0EB5C217C10F5040D2
:10443000CA0740180021054B0293019200910A46D9
:104440000B4600F036F803B000BD00003304000056
:1044500070B5CD0F4A0009030123090B1B05194351
:104460000B4BED070024520D9A4201DA002070BD7B
:10447000074B34339A4203DC9A1A5EF7E0FF02E0FE
:104480000449511888402C43F1D0404270BD0000CF
:10449000FF030000CDFBFFFF10B5002B08DA00245E
:1044A000401C614192185B411A4301D14008400011
:1044B00010BDF0B51FB482B005460C0003D008460D
:1044C00000F05CF802E000F059F82030024600905D
:1044D000214628465AF754FE049B059A04460F4687
:1044E00018431143084314D0184610431BD00098BA
:1044F00040210A1A184605995EF7A1FF05460E46A7
:10450000009A059904985AF73BFE084305D001200C
:1045100004E02046394607B0F0BD0020C11705432E
:104520000E432C43374300990E986305401A7905D2
:10453000E40A00220C43FD0A0A3002D5002001469D
:10454000E9E70105101969410C9C0D9D00196941AD
:10455000FFF7A2FFDFE70000064C0125064E05E04D
:10456000E36807CC2B430C3C98471034B442F7D394
:10457000FBF7D2FD0C4BFC072C4BFC072021020C57
:1045800001D010211046020A01D010460839020954
:1045900001D01046091F820801D01046891E42082A
:1045A00001D0881E7047081A7047F8B5040C8BB20A
:1045B000264682B25E430D0C1046370C5843360433
:1045C00080190021794116466E43370C3604801954
:1045D000794126466E438919F8BD02E008C8121FCA
:1045E00008C1002AFAD170477047002001E001C1DC
:1045F000121F002AFBD17047304BFC07C58BFC070C
:10460000C68BFC07C08BFC07C48BFC076503FC074B
:104610008303FC075F07FC07A707FC07F401020000
:1046200000CAEA80D0070640643200001C46FC073E
:10463000F88BFC07D524FC077325FC0793DEF007F5
:10464000F1DEF007F9DEF00749DFF00761DFF00780
:1046500077DFF00799DFF00719E3F007BDE5F00712
:10466000FDE3F0071DE4F0073DE4F0077BE4F0070D
:104670008BE4F007F5F9F007B1F7F007CFF7F00793
:10468000EBF7F00705F8F00719F8F00797F8F007CF
:10469000AFF8F007DFCDF10767D0F107DBB9F0071E
:1046A000CD0DF207B10EF207AD0EF207A90EF2071B
:1046B0008D21F007C506FC077D20FC07290AFC07B1
:1046C0005B09FC074509FC07B57EF007837DF00711
:1046D000313FFC07599EF107634CF107D12BFC07D2
:1046E000D110F207312CFC07B111F2074112F20789
:1046F0007912F20700000000BF06FC07C106FC07A4
:10470000B9C6F007D592F107BF3FFC075F9DF107DF
:104710005F9CF107D142FC07EB72F107B922F10768
:104720006B04F1079506FC072BA4F007F1D2F00704
:104730005FBDF007D5BDF00785BEF007DB2DF007A4
:10474000752EF0071581F007DF7FF0070937F007B6
:1047500000000000AF06FC07B706FC079706FC0741
:10476000F3C3F10775C4F107C306FC07CB25FC07AB
:104770000000000000000000000000000000000039
:104780000000000000000000000000000000000029
:104790000000000000000000000000000000000019
:1047A0000000000000000000000000000000000009
:1047B00005000000F852FC07000400004C92FC07C2
:1047C000AC020000408EFC07000400000495FC07CA
:1047D000700500002003000000A60E000400000089
:1047E000D2000000320000003C0000000100000088
:1047F00001000000020000000200000004000000B0
:10480000030000000600000000000000020000009D
:104810000200000000000000000000000300000093
:104820000300000005000000050000000600000075
:104830000A0000000A000000C8000000B80B0000D9
:1048400002000000B80B0000B80B000010000000D0
:10485000D4010000CC010000700200006A000000DA
:104860000400000001000000200000000A00000019
:1048700001000000E20400008A020000DC050000E4
:10488000AF0000002C46FC07000000000000000004
:104890009449FC07BC4AFC07F845FC0701040000EA
:1048A0000000000000000000000000003F000000C9
:1048B000000000002000800000C000000000840014
:1048C00000002822000000000000040000F7FFFFA5
:1048D0007F00000030F0FF0F000000000004000027
:1048E00000000000000000000000000000000000C8
:1048F00000000000FF0F0000010099090300990962
:10490000070099090F0099091F1099092F2099098B
:104910005F519909080004900000000000000000A9
:10492000030005D08B0035F010005CF0000010B0E3
:10493000000018B000001AB0030051F0000038B0B9
:1049400000003AB0000064B0000066B0000022B081
:10495000000024B0010005D0000000000A00008023
:1049600008030490000004F0030006D000000000DB
:104970000A00008008030490000004F0030006D041
:104980000000000014000000ED14F207FF0000001A
:10499000000000008449FC07288DFC07010000008E
:1049A00000004C044C04070100010203040506004A
:1049B000FF000000000000000000000014000000E4
:1049C000E733FC0700000000FF00000000000000CB
:1049D0000000000000000000583FF2079C8DFC071B
:1049E00004000100000000000000000000000000C2
:1049F000010D0000F12FFC07000D00001930FC072D
:104A0000000E0000D330FC07010E00007130FC07DF
:104A1000030E0000EB30FC070A0E00001B31FC0700
:104A20000C0E00008531F2071C0D0000C731F207A3
:104A3000100D00008530F2070F0E0000F931F2076B
:104A40002C0E00003932F207120C00005332F2072C
:104A5000080E00006F32F2077539FC07CD39FC07EC
:104A600000000000000000008B2CFC07000000008C
:104A7000C539FC07000000009B2CFC07000000006B
:104A80000000000000000000A32CFC07B52CFC0770
:104A9000BD2CFC07CF2CFC0700000000FD2CFC0700
:104AA000092DFC070000000000000000BD31FC07DC
:104AB0004932FC079534FC07F8000000AD2FFC07D5
:104AC000612DFC07584AFC07EB39FC07AC4AFC0790
:104AD000588DFC0700000000888DFC0702140000C0
:104AE0002134FC0748004F000800170001010100B5
:104AF000000001010B08008300000000020000001C
:104B0000000000000000000000000000304BFC0727
:104B1000304BFC07C8070000EA45FC07C08BFC07C8
:104B2000C08BFC0780020000EA45FC070E01010073
:0400000507FC0111E2
:00000001FF
